:060000000A128A11122809
:10000800FE00030EF9000408FA000A08FB00831238
:1000180003137F08FC000A128A1171290A128A1137
:100028001528FD0183132030840051300A128A11EB
:10003800742283010A128A11212883160313881354
:1000480083120313881383160313081383120313ED
:1000580008138316031308118312031308150A12D1
:100068008A113F220A128A110A128A117C220A1264
:100078008A110A128A115F220A128A110A128A1137
:1000880022220A128A110A128A1153220A128A118A
:1000980083120313A001A1018312031388170330ED
:1000A800D9008A30D8005630D700D70B5928D80B3A
:1000B8005928D90B59286028123083120313D70006
:1000C8005708D10003300A128A11C2210A128A1174
:1000D800033083120313D9008A30D8005630D70072
:1000E800D70B7428D80B7428D90B74287B28343084
:1000F80083120313D7005708D10003300A128A115C
:10010800C2210A128A11033083120313D9008A30DC
:10011800D8005630D700D70B8F28D80B8F28D90B8B
:100128008F289628553083120313D7005708D1001B
:1001380003300A128A11B3200A128A118312031398
:1001480088130330D9008A30D8005630D700D70B2F
:10015800AB28D80BAB28D90BAB28B2285028831270
:100168000313D600E830D4000330D5001308D200BA
:100178005208D300C5280818D228BF288818D228C2
:10018800C2285608033A0319BF28073A0319C22898
:10019800D228D2280710DA288710DA285608033A16
:1001A8000319CE28073A0319D028DA2851089300F2
:1001B800831603131418F8280C148312031310144D
:1001C8005408550403190800D630D200EB28EC284F
:1001D800D20BEA280000013083120313D402003046
:1001E800031CD503D502DC28831203130C108316D5
:1001F80003130C10831203131010062907140E2979
:1002080087140E295608033A03190229073A0319D5
:1002180004290E291308D2005208D3000800F3005D
:10022800E830F4000330F500831203131308F100DB
:100238007108F2002529081832291F29881832293F
:1002480022297308033A03191F29073A0319222997
:100258003229322907103A2987103A297308033AB4
:1002680003192E29073A031930293A2970089300EF
:1002780083160313141856290C148312031310142D
:100288007408750403190800D630F1004B294C296D
:10029800F10B4A2900000130F4020030031CF50379
:1002A800F5023C29831203130C10831603130C1058
:1002B800831203131010642907146C2987146C29FE
:1002C8007308033A03196029073A031962296C294C
:1002D8001308F1007108F20008008C1EB5290817F0
:1002E8000D30F800AF30F700C130F600F60B7A2970
:1002F800F70B7A29F80B7A290000831203138C1262
:100308000A128A1103220A128A11F60083120313B1
:1003180020084F3E840076088313800020084F3E53
:1003280084000008F6007608F00003300A128A11EB
:1003380013210A128A11013083120313A00703182C
:10034800A10A0030A10708131A30F8005E30F70040
:100358008630F600F60BAE29F70BAE29F80BAE295E
:1003680000007C0883120313FF007B088A007A08C8
:100378008400790E8300FE0E7E0E0900831203139B
:10038800D600E830D4000330D5001308D200520854
:10039800D300D2290710DA298710DA295608033A38
:1003A8000319CE29073A0319D029DA2951089300ED
:1003B800831603131418F5298312540855040319D6
:1003C8000800E629E7290000013083120313D4024C
:1003D8000030031CD503D502DC290714FE29871435
:1003E800FE2983125608033A0319F129073A03191B
:1003F800F329FE291308D2005208D3000800F0019F
:10040800F1010F2A0130F0070318F10A0030F10753
:100418000D2A0E2A0000831203138C1A1E2A710853
:10042800803AFF0080307F02031D1C2A653070026D
:10043800031C062A831203131A08080083160313E1
:100448008711871207160710871083120313941257
:1004580083160313941383120313141283160313BE
:100468001413831203139411141194101410071405
:10047800871494160800093083120313D100003042
:10048800D20083160313891009108312031351082D
:1004980084008313521883170330800008008316E2
:1004A8000313871781309900243098009030831205
:1004B800031398000800831203130510851183168F
:1004C80003130514851501309F00080002308A00C7
:1004D8000408840A82070034FF340034033480346B
:1004E80064008001840A0406031900340406752A8E
:0A04F800831603130814881408008B
:02400E0072FF3F
:00000001FF
