:100000000A128A11F52FFF1B0D2883137F188317FF
:100010000008840A0319FF0A080000308A00040857
:10002000840A82070034FF340034033400348034FF
:100030003F34003480343F34003480343F34003463
:1000400080343F34023400340134503472346F341D
:100050006734723461346D34203453347434613411
:0C0060007234743421340D340A3400343E
:1001800083160313081488140800F0008312031365
:100190000C1EC62870089900080064008001840ABB
:1001A0000406031900340406CE28831603138717A8
:1001B0008130990024309800903083120313980006
:1001C000080083120313D2004F08D1005108A10088
:1001D0005008D1005108C0002130D1005108FC0066
:1001E00052080A128A11D5210800831603138711B9
:1001F0008712071607110710871083120313941232
:100200008316031394138312031314128316031318
:10021000141383120313941114119410141007155E
:100220000714871494160800FB01FC018130831227
:1002300003139F001F151F191B291E08F8007808BB
:10024000F900831603131E08F8007808FA007930C5
:10025000F8007808F0007B300A128A11FE227C0830
:10026000F7007B08F6000800F401F501701C3E2938
:100270007208F4070318F50A7308F5070130031034
:10028000F20DF30DFF3E031D3F2901300310F10C69
:10029000F00CFF3E031D462970087104031D36292A
:1002A0007508F1007408F000080072088312031347
:1002B000FF00710884000A128A1103200A128A11B1
:1002C000003A03197829720883120313FF0071089A
:1002D00084000A128A1103200A128A110A128A1152
:1002E000C5200A128A110130F1070318F20A5529B4
:1002F00000300A128A11C52008007208031908008C
:10030000831203132008223E840083138001800A95
:100310000130F3007308A0077108FF007008840023
:100320000A128A1103200A128A11F3002008223EC1
:1003300084007308831380000130F0070318F10A6A
:100340000130F3007308A0070130F2027D29FB00A1
:100350003030F9007908FD00FC017B087C020318AD
:10036000BA290130F9007908FD070130F900790850
:10037000FC07AD297D08F900780884008313000884
:100380007707FA007A088400790880000130F900C4
:1003900078088400790880077808840000087707C7
:1003A000F900790884008001080083120313CE004D
:1003B000F001F00A4E080A128A1155250A128A1114
:1003C0007C08FD007D08F000831203134E080A121A
:1003D0008A1155250A128A117C08013EFD007D080C
:1003E000F600831203134E080A128A1134230A12EC
:1003F0008A117C081F3EFD007D08F0008312031364
:100400004E080A128A1155250800F4000230F10046
:100410007008840071088000740884000A128A1130
:100420000D200A128A11F1000A128A110D200A12F7
:100430008A11F2007208F300700A840073088000C9
:10044000013084000A128A110D200A128A11F1006B
:10045000740884000A128A110D207105F2007008D8
:10046000023E840072088000080083120313D30048
:100470007908031908004E30FA007A08F000530892
:100480000A128A1198220A128A1183120313D401C4
:10049000053054020318632A54084E3E8400831327
:1004A0000008FA002008223E84007A08800001300B
:1004B000FA007A08A0070130FA007A08D40705305C
:1004C0005402031C4C2A0130F902382A8312031308
:1004D000EB011E306B02031808006730E500650869
:1004E000DF000430E6006608E0006B08223E84006E
:1004F000831300080A128A11B8230A128A1167307E
:10050000F1000030F2000A128A1155210A128A11F4
:100510002130F1008030F2000A128A1155210A12AE
:100520008A11013083120313E5006508EB07692A7D
:10053000F700770884000A128A110D200A128A1126
:10054000F3000A128A110D200A128A11F4000A120D
:100550008A110D200A128A11F5000430F10070088A
:100560008400710883138000F801043078020318B6
:1005700008007808733E84000008F1007808013E06
:100580007007F20072088400710880000130F100E9
:100590007108F807B52AFA007508031908007730C2
:1005A000F6007608F0007A080A128A1105220A126B
:1005B0008A110230F6007608FA07FB0103307B024D
:1005C0000318FB2A7B08773E84000008F60083129C
:1005D00003132008223E8400760883138000013034
:1005E000F6007608A0070130F6007608FB07033016
:1005F0007B02031CE22A0130F502CC2AF5007008C8
:1006000084000008F100F201750884007108800080
:10061000840A720880007508840002300310800D7F
:10062000840A800D8403FF3E031D0E2B03308400DB
:100630000A128A110D200A128A11F100700A840030
:100640000008F20006300310F20CFF3E031D232BBE
:1006500072087105F300F4017508840073088004C2
:10066000840A740880040800FB00FA0176088400FC
:10067000831300080319712B760884008313000884
:10068000F7007708F8007608F7007708F0007B0895
:100690000A128A1155250A128A110130F7007708CB
:1006A000F6070130F7007708FA07F90178087902B0
:1006B0000318362B7608F7007708F0007B080A123B
:1006C0008A1155250A128A110130F7007708F607BA
:1006D0000130F7007708FA070130F7007708F907CB
:1006E000562B1E307A02031808003C2B831203138A
:1006F000DE00C8305E0203187F2B3130842BC830F7
:100700005E02031C952B3230DA00590884008313F3
:1007100000085807DB005B0884005A08800001309D
:10072000DA00590884005A0880076430F00000306D
:10073000F1005E08DA00DB015A08F2005B08F30002
:100740000A128A11FB230A128A11700883120313FA
:10075000DC005C08DD005808DA005A08CE005908B1
:10076000DB005B08CF005D080A128A119F24080095
:1007700083120313E400E30104306002031C080049
:1007800064306402031CD12B5F08E1006108D800CB
:100790006330E2006208D90064080A128A117623E5
:1007A00008000A30831203136402031CE82B643030
:1007B00064020318E82B5F08E1006108CE00633093
:1007C000E2006208CF0064080A128A119F24080020
:1007D0000A30831203136402031808005F08E10063
:1007E0006108F7006330E2006208F80064080A124A
:1007F0008A11A7210800F601F31F052CF209F3095D
:10080000F20A0319F30AF601F60AF11F0C2CF0099B
:10081000F109F00A0319F10A700871040319392C5F
:10082000F501F50AF11B202C01300310F00DF10D3C
:10083000FF3E031D152C0130F4007408F507122C3F
:1008400071087302031D262C70087202031C2E2CE3
:100850007008F2027108031CF303F3020130031065
:10086000F10CF00CFF3E031D2F2C0130F502031D8F
:10087000202C76080319412CF209F309F20A031916
:10088000F30A7308F1007208F0000800F601F11F86
:10089000502CF009F109F00A0319F10AF601F60AE1
:1008A000F31F5B2CF209F309F20A0319F30A013072
:1008B000F4007408F606F701F801700871040319D2
:1008C000922CF501F50AF11B712C01300310F00D8B
:1008D000F10DFF3E031D662C0130F4007408F5078E
:1008E000632C01300310F70DF80DFF3E031D722C31
:1008F00071087302031D7E2C70087202031C872C82
:100900007008F2027108031CF303F302771401303C
:100910000310F10CF00CFF3E031D882C0130F50292
:10092000031D712C760803199A2CF709F809F70AA8
:100930000319F80A7808F1007708F000080083121C
:100940000313D7000A30F0000030F1005708D00040
:10095000D1015008F2005108F3000A128A1146240E
:100960000A128A11700883120313D2005208D400AD
:100970003030D0005008D500D60154085602031874
:10098000CA2C0130D0005008D5070130D0005008E3
:10099000D607BD2C5508D0004F08840083130008EB
:1009A0004E07D10051088400500880000130D0006B
:1009B0004F088400500880074E08D0005008F70008
:1009C0004F08D1005108F8000A30F0000030F10063
:1009D0005708D200D3015208F2005308F3000A125C
:1009E0008A11FB230A128A1170080A128A11A721A0
:1009F0000800F400E830F2000330F3008312031320
:100A00001308F0007008F1000E2D0819202D052D97
:100A10000818202D082D8818202D0B2D7408023A57
:100A20000319052D013A0319082D073A03190B2D57
:100A3000202D202D07112B2D07102B2D87102B2D4E
:100A40007408023A03191A2D013A03191C2D073AAA
:100A500003191E2D2B2D9301831603131418472DF4
:100A60007208730403190800352D362D000001307B
:100A7000F2020030031CF303F3022C2D831207153E
:100A8000522D83120714522D83128714522D74088D
:100A9000023A03193E2D013A0319412D073A031971
:100AA000442D522D831213080800F500E830F3009E
:100AB0000330F400831203131308F1007108F200ED
:100AC0006A2D08197C2D612D08187C2D642D88183D
:100AD0007C2D672D7508023A0319612D013A03191F
:100AE000642D073A0319672D7C2D7C2D0711872D66
:100AF0000710872D8710872D7508023A0319762D68
:100B0000013A0319782D073A03197A2D872D7008B9
:100B10009300831603131418A42D73087404031987
:100B20000800922D932D00000130F3020030031CC9
:100B3000F403F402892D83120715AF2D83120714D5
:100B4000AF2D83128714AF2D7508023A03199B2D20
:100B5000013A03199E2D073A0319A12DAF2D8312D7
:100B60001308F1007108F200080083120313DA0081
:100B70007D08013EF000003003180130F1007C08D0
:100B8000D500D6015508F2005608F3000A128A1162
:100B900034210A128A118312031320087007D70028
:100BA00071080318710AD800D709D809D70A0319A0
:100BB000D80A1E30570758080318580A003ED900B3
:100BC000D91B0800092E831203135A08F0000030C5
:100BD000031D8030F1007C08D5005508F2000A1290
:100BE0008A117D2108007C0883120313D500550863
:100BF000F5005A080A128A11CB2208007C088312D9
:100C00000313D5005508F9005A080A128A11352233
:100C100008007D08013A0319E32D033A0319F32D67
:100C2000063A0319FE2D142E0800F5007508F00091
:100C30000030F1000230F4007408F2000A128A1148
:100C40007D210A128A117508023EF0000030F10081
:100C50000230F4007408F2000A128A117D210A128F
:100C60008A117508043EF0000030F1000230F400F3
:100C70007408F2000A128A117D210A128A1175087D
:100C8000063EF0000030F1000230F4007408F2007B
:100C90000A128A117D210A128A117508083EF00095
:100CA0000030F1000230F4007408F2000A128A11D8
:100CB0007D210A128A1175080A3EF0000030F10009
:100CC0000230F4007408F2000A128A117D210A121F
:100CD0008A11831203132008223E840083138001AB
:100CE000800A0130F4007408A0072008223E840026
:100CF00000304D18013080000130F4007408A00766
:100D00002008223E84008001800A0130F40074082B
:100D1000A0072008223E84000030CD18013080005A
:100D20000130F4007408A00708000A128A11F520A7
:100D30000A128A1104300A128A11F9240A128A113D
:100D4000FD007D0883120313C10004300A128A11CA
:100D5000F9240A128A11FD007D0883120313C200D0
:100D600004300A128A11F9240A128A11FD007D0842
:100D700083120313C30004300A128A11F9240A12E1
:100D80008A11FD007D0883120313C40004300A1287
:100D90008A11F9240A128A11FD007D0883120313B7
:100DA000C50004300A128A11F9240A128A11FD00C2
:100DB0007D0883120313C60004300A128A11F92435
:100DC0000A128A11FD007D0883120313C700043044
:100DD0000A128A11F9240A128A11FD007D08831271
:100DE0000313C80004300A128A11F9240A128A1166
:100DF000FD007D0883120313C90004300A128A1112
:100E0000F9240A128A11FD007D0883120313CA0017
:100E10000A128A111421770883120313CF0076086F
:100E2000CE004F08FD007D08CB004E08FD007D0878
:100E3000CC004D14CD1408008316031388138312BD
:100E4000031388130A128A11C0200A128A110A1287
:100E50008A11D5200A128A111330F1008030F20075
:100E60000A128A1155210A128A11FC01FC0A043067
:100E700083120313EC006C08FD0004300A128A117F
:100E8000B5250A128A11FC01FC0A043083120313EF
:100E9000EC006C08FD000A300A128A11B5250A120E
:100EA0008A11FC01FC0A023083120313EC006C0867
:100EB000FD0010300A128A11B5250A128A11FC01B0
:100EC000FC0A043083120313EC006C08FD000D30A3
:100ED0000A128A11B5250A128A11FC01FC0AFD01C9
:100EE000FD0A12300A128A11B5250A128A11FC0174
:100EF000FC0A043083120313EC006C08FD00073079
:100F00000A128A11B5250A128A110A128A1166225A
:100F10000A128A118312031388171A30EE005E300A
:100F2000ED008630EC00EC0B932FED0B932FEE0BC6
:100F3000932F00008312031388131A30EE005E30E3
:100F4000ED008630EC00EC0BA32FED0BA32FEE0B86
:100F5000A32F00008A2F8312031388171A30EE0084
:100F60005E30ED008630EC00EC0BB42FED0BB42FAF
:100F7000EE0BB42F00000A128A1195260A128A116C
:100F800041300A128A1115260A128A11831203139C
:100F9000CF01CF0A1030EC006C08D00003300A12E9
:100FA0008A11E1200A128A118312031388131A305E
:100FB000EE005E30ED008630EC00EC0BDD2FED0B2B
:100FC000DD2FEE0BDD2F0000831203130818AB2F6B
:100FD000FE30EE00A830ED006130EC00EC0BEE2F9F
:100FE000ED0BEE2FEE0BEE2FAB2F83132030840092
:100FF0004E300A128A11CD2083010A128A111C2F49
:02400E0072FF3F
:00000001FF
