:060000000A128A11122809
:10000800FE00030E83120313DB000408DC000A0859
:10001800DD007F08DE000A128A110B2A0A128A11F3
:10002800152883132030840050300A128A115C226C
:1000380083010A128A112028831603138813831256
:10004800031388130A128A1125220A128A110A1226
:100058008A113B220A128A110A128A1148220A12AC
:100068008A118312031388171A3083160313A20008
:100078005E30A1008630A000A00B4028A10B4028CC
:10008800A20B402800008312031388131A3083162A
:100098000313A2005E30A1008630A000A00B5228F6
:1000A800A10B5228A20B52280000831203138817B1
:1000B800033083160313A2008A30A1005630A00033
:1000C800A00B6428A10B6428A20B64286B280A12D1
:1000D8008A116C220A128A118312031388130330BF
:1000E80083160313A2008A30A1005630A000A00B8B
:1000F8007B28A10B7B28A20B7B2882285928F20099
:10010800F3018030F0007008F600F401F50175087D
:10011800803AFF0080307F02031D94280830740263
:100128000318C228831203138812831603130816B0
:100138000430F000F00B9E28A128831203138816C0
:10014800081EAA287608F0007008F3047608F00064
:100158000310700CF1007108F6000130F407031861
:10016800F50A0030F5077508803AFF0080307F02F5
:10017800031DC02808307402031C96288312031339
:1001880088127208031D0816031908128316031330
:1001980008120330F000F00BCF28831203138816DF
:1001A80073080800F3008316031308128030F00068
:1001B8007008F600F401F5017508803AFF008030F8
:1001C8007F02031DE9280830740203180E298312E0
:1001D80003138812730876050319F4280816F528FE
:1001E80008127608F0000310700CF1007108F60090
:1001F80088160130F4070318F50A0030F50775086A
:10020800803AFF0080307F02031D0C2908307402F9
:10021800031CEB2883120313881283160313081692
:100228000330F000F00B16298312031388160330ED
:10023800F000F00B1D29003083120313081A013057
:10024800F2000800FB00FD01FC017B08F9007907BA
:10025800FA007A08FC007C080138F9007908FC00EB
:100268000A128A1173220A128A117C080A128A1148
:10027800D6200A128A11FD0178087D020318582930
:1002880000300A128A1183200A128A11F9007D08A7
:100298007707FA007A088400790883138000013010
:1002A800F9007908FD07402901300A128A118320D4
:1002B8000A128A11F9007D087707FA007A08840083
:1002C8007908831380000A128A11F0210800593036
:1002D80083120313D6005608D0000230D7005708FF
:1002E800D10000300A128A11A8210A128A114D3051
:1002F80083120313D8001930D7009A30D600D60BD2
:100308008329D70B8329D80B83298A2983120313BE
:1003180059080A128A1164220A128A111A308312A1
:100328000313D8005E30D7008630D600D60B9A2942
:10033800D70B9A29D80B9A290000831203135A085D
:100348000A128A116422080083120313D400540885
:10035800D2005208F70048300A128A11D3210A1233
:100368008A1183120313D5015508031DCD2950089E
:10037800D2005208F7005108D3005308F80048305B
:100388000A128A1126210A128A1183120313D5012F
:10039800D1290530D2005208D50055080800FA00C6
:1003A800FB017A08F8007807F9007908FB000A12BF
:1003B8008A1173220A128A117B080A128A11D6201E
:1003C8000A128A1177080A128A11D6200A128A118B
:1003D8000A128A11F0210800831203138812F429E3
:1003E800F529000083120313081283160313081259
:1003F800831203138816002A012A000083120313AC
:1004080008161030F000F00B072A000008008C1EB8
:10041800182A0C080A128A117A220A128A110A1258
:100428008A116B210A128A11831203135E08FF00D6
:100438005D088A005C0884005B0E8300FE0E7E0E59
:100448000900831603130815093083120313DF000C
:100458000030E000831603130910831203135F08AA
:100468008400831360188317013080000800831606
:1004780003138812831203138816831603130816AE
:100488008312031308160800831603138717813095
:1004980099002430980090308312031398000800C4
:1004A80002308A000408840A82070034FF340034CA
:1004B80064008001840A04060319003404065D2AD6
:1004C800F000831203130C1E652A700899000800B7
:1004D800831603130C168C168B170B170800831240
:1004E8000313081283160313081208008316031354
:0804F8008C128B130B1308009A
:02400E0072FF3F
:00000001FF
