:100000000A128A11F82F00308A000408840A820735
:100010000034483465346C346C346F34213420340B
:1000200054345334503421340D340A340034693498
:100030006E3474346F3420347734683469346C34FB
:1000400065340D340A3400345334743461347234FA
:1000500074340D340A34003445346E3464340D3451
:040060000A3400342A
:100F1000F000831203130C1E892F7008990008003B
:100F2000831603138717813099002430980090307E
:100F30008312031398000800F200720884000A125A
:100F40008A1103200A128A11003A0319B82F720875
:100F500084000A128A1103200A128A110A128A11C5
:100F600088270A128A110130F1007108F2079D2FBB
:100F700000300A128A118827080083160313081309
:100F80000A128A1190270A128A1101300A128A1154
:100F90009C270A128A111C300A128A119C270A12F5
:100FA0008A118312031308170330F5008A30F40006
:100FB0005630F300F30BDA2FF40BDA2FF50BDA2FA0
:100FC000E12F24300A128A119C270A128A118312F7
:100FD000031308130330F5008A30F4005630F30091
:100FE000F30BF02FF40BF02FF50BF02FF72FCB2F87
:100FF000F601F701F801F90183010A128A11BD2FE8
:02400E0072FF3F
:00000001FF
