:060000000A128A11122809
:10000800FE00030EF7000408F8000A08F90083123E
:1000180003137F08FA000A128A115F2A0A128A114A
:100028001528FC0183134230840063300A128A11B8
:10003800EA240A128A1183160313E7018317903002
:100048008400B1300A128A11EA240A128A110A12AB
:100058008A11F2240A128A11E2000A128A11F32480
:100068000A128A11E3000A128A11F4240A128A1168
:10007800E4000A128A11F5240A128A11E5000A120C
:100088008A11F624E60083010A128A114B28DB3014
:10009800840083160313620883138000840A6308AC
:1000A8008000840A64088000840A65088000840A45
:1000B800660880000A128A11B4240A128A1183126F
:1000C800031305140D3083160313BC00AF30BB00B7
:1000D800C130BA00BA0B6E28BB0B6E28BC0B6E2859
:1000E80000008312031305100D3083160313BC00A0
:1000F800AF30BB00C130BA00BA0B8028BB0B8028D8
:10010800BC0B802800000A128A11C3240A128A1123
:1001180000300A128A1106230A128A1103300A12C1
:100128008A1116240A128A11831203130514033044
:1001380083160313BC008A30BB005630BA00BA0BD2
:10014800A328BB0BA328BC0BA328AA28831203133C
:100158000510033083160313BC008A30BB005630E9
:10016800BA00BA0BB528BB0BB528BC0BB528BC2800
:10017800831603136703031D9828BD30BA003A0895
:10018800A200E130BB003B08A300E0300A128A114C
:1001980023220A128A11831603133D080A128A11B0
:1001A800D0240A128A11831603133E080A128A11F0
:1001B800D0240A128A110230831603133E06031D47
:1001C80098287F30BC00D430BB00AE30BA00BA0BE0
:1001D800EB28BB0BEB28BC0BEB28F2280530831669
:1001E8000313BA003A08B200B301B30ADB300A12AB
:1001F8008A110D210A128A11103083160313BA00CE
:100208003A08A00002300A128A117D240A128A11C3
:10021800982883160313B9003308013EA000003064
:1002280003180130A1003208B400B5013408A20057
:100238003508A3000A128A113B240A128A11831274
:1002480003134308831603132007B6002108031875
:10025800210AB700B609B709B60A0319B70A1E304A
:10026800360737080318370A003EB800B81B0800DD
:100278005C293208B4003408A00039080A128A112F
:10028800D2220800831603133208B4003408A500EC
:1002980039080A128A11A9210800831603133208A3
:1002A800B4003408A90039080A128A11E6210800A6
:1002B800831603133308013A03193D29033A031936
:1002C8004629063A0319512969290800831203139C
:1002D800C1010230410203188E294108203E0A124A
:1002E8008A11A3240A128A110130F30073088312B9
:1002F8000313C1076D29831203134108203E0A1214
:100308008A11A3240A128A110130F3007308831298
:100318000313C1072108023EF3000030031801301F
:10032800F4007408803AF50080307502031D9E2998
:100338004108730203187F2920300A128A11992272
:1003480083160313E701E70A080083160313AA00BC
:10035800250803190800A730A6002608A0002A08C7
:100368000A128A11EE230A128A1102308316031325
:10037800A6002608AA07AB0103302B020318E329BD
:100388002B08A73E840083130008A60083120313DA
:100398004308443E84008316031326088000013076
:1003A800A600260883120313C3070130831603131C
:1003B800A6002608AB0703302B02031CC429013012
:1003C800A502AC2983160313B000290803190800F5
:1003D800AB30AA002A08A00030080A128A11982314
:1003E8000A128A11033083160313AA002A08B007D9
:1003F800B101053031020318202A3108AB3E8400D0
:1004080083130008AA00831203134308443E8400A0
:10041800831603132A0880000130AA002A088312D1
:100428000313C307013083160313AA002A08B10770
:1004380005303102031C012A0130A902E92983167B
:100448000313A50083160317100883160313A400CB
:1004580025088400240883138000A6018316031747
:10046800110883160313260203184E2A2608923E03
:10047800840083170008A40022088400240883133A
:1004880080000130A4002408A2070130A400240839
:10049800A607322A83160317110883160313A4002C
:1004A80023088400240880000A128A11692383160D
:1004B8000313E70108008C1D8E2A1308F60076083E
:1004C800FB00FF3093007B300A128A11A3240A1222
:1004D8008A11802A0A128A116A210A128A118B2A21
:1004E8000A128A1138230A128A118B2A0A128A11CF
:1004F800DD240A128A118B2A7B08013A03196E2A15
:10050800033A0319742A013A03197A2A8B2A8312A7
:1005180003138C117A08FF0079088A007808840090
:10052800770E8300FE0E7E0E0900F200720884002A
:1005380083130008F0007008831603179000013039
:10054800F0007008F207720884000008F0007008D4
:1005580091000130F0007008F207F10111087102F2
:100568000318CA2A7208840083130008F00071086F
:10057800923E84007008831780000130F0007008F4
:10058800F2070130F0007008F107B22A72088400FF
:1005980083130008F0007008B000080083160313E6
:1005A800A200200803190800831203134308443EDD
:1005B800840083138001800A013083160313A1008D
:1005C800210883120313C307831603132208840028
:1005D8000008A100831203134308443E84008316D5
:1005E8000313210880000130A1002108A20701306F
:1005F800A100210883120313C307013083160313D4
:10060800A002D52A83160313A000871507168712A0
:100618008516831203131F10831603139F111F15CA
:100628009F148312031394128316031394138312D3
:100638000313141283160313141383120313941150
:10064800141594101410831603132008031D342B5B
:10065800831203138C11831603138C150B178B1736
:1006680083120313941608008312031342080A1214
:100678008A1191240A128A118312031343080A1259
:100688008A1191240A128A11F40183120313430870
:10069800740203185E2B7408443E84008313000818
:1006A8000A128A1191240A128A110130F300730880
:1006B800F407492B62080A128A1191240A128A1136
:1006C8000A128A11C323FC0108008316031790013C
:1006D800910183160313A001A1012108803AFF00AC
:1006E80080307F02031D7A2B1E3020020318942BC2
:1006F800831603132008923E84008317800101307B
:10070800A0070318A10A0030A1072108803AFF00BA
:1007180080307F02031D922B1E302002031C7C2B8D
:1007280083160317B001080083160313A7002708D0
:10073800840083130008A300840A0008A400840A24
:100748000008A5000430A1002008840021088000CA
:10075800A80104302802031808002808A33E8400D2
:100768000008A1002808013E2007A20022088400F2
:10077800210880000130A1002108A807AD2B8312B1
:100788000313C201C301F001F1017108803AFF00AF
:1007980080307F02031DD22B1E3070020318EA2B13
:1007A8007008443E8400831380010130F007031869
:1007B800F10A0030F1077108803AFF0080307F02AB
:1007C800031DE82B1E307002031CD42B8312031365
:1007D800E201080083160313A4000230A1002008D8
:1007E8008400210883138000240884000008A100E5
:1007F800840A0008A2002208A300200A8400230813
:100808008000013084000A128A115E24A1002408A5
:10081800840000082105A2002008023E8400220866
:100828008000080083160313A200220884000A121D
:100838008A115E240A128A11003A0319362C2208FA
:1008480084000A128A115E240A128A110A128A1175
:10085800D0240A128A11013083160313A10021083B
:10086800A207192C00300A128A11D0240800831616
:100878000313A401A501201C472C2208A407031870
:10088800A50A2308A50701300310A20DA30DFF3EFA
:10089800031D482C01300310A10CA00CFF3E031DC2
:1008A8004F2C20082104031D3F2C2508A1002408F3
:1008B800A000080004308A000408840A8207003473
:1008C800FF34003453346C34613476346534203466
:1008D800503472346F346734723461346D34203478
:1008E8005334743461347234743421340D340A341A
:1008F800003483160313A2002208A10021088312E2
:100908000313C200831603132008A10021088312D1
:100918000313E200FC01FC0A0800F20072088312CB
:100928000313930083160313141C962C83120313CA
:100938001308F0007008F100FF3093000800F10080
:1009480083160313141CA42C831203131308F0003A
:1009580071088400700883138000FF30930008003A
:100968008316031385018601870188018901831293
:100978000313850186018701880189010800831610
:10098800031307138717813099002430980090309B
:10099800831203139800080083160313A000831220
:1009A8000C1ED32C831603132008831203139900FB
:1009B80008007C080319E52C01300A128A119124D9
:1009C800080000300A128A1191240800640080018E
:1009D800840A0406031900340406EB2C61346234DB
:0609E80063346434653441
:02400E0072FF3F
:00000001FF
