:100000000A128A11F42F00308A000408840A820739
:100010000034613462346334643465346634673484
:10002000683469346B346C346D346E346F347034CE
:100030007034713472347334743475347634773484
:10004000783479347A343134323433343434FF34DC
:1000500000344D3461347334743465347234203474
:10006000503472346F346734723461346D342034F8
:100070005334743461347234743421340D340A349A
:0200800000344A
:10061C00F000831203130C1E0F2B700899000800B6
:10062C0064008001840A0406031900340406172BA5
:10063C008316031307138717813099002430980011
:10064C00903083120313980008008316031385015E
:10065C0086018701880189018312031385018601B4
:10066C008701880189010800831603138711071677
:10067C008712071107108710831203139412831625
:10068C0003139413831203131412831603131413FA
:10069C0083120313941114119410141007150714DA
:1006AC00871494160800F200720884000A128A114A
:1006BC0003200A128A11003A0319752B7208840060
:1006CC000A128A1103200A128A110A128A110E23A5
:1006DC000A128A110130F1007108F2075A2B00300E
:1006EC000A128A110E230800F401F501701C842BE8
:1006FC007208F4070318F50A7308F50701300310A4
:10070C00F20DF30DFF3E031D852B01300310F10C90
:10071C00F00CFF3E031D8C2B70087104031D7C2B09
:10072C007508F1007408F0000800F2007008031955
:10073C000800831603132108A23E84008313800152
:10074C00800A0130F1007108A107720884000008CA
:10075C00F1002108A23E8400710880000130F100F4
:10076C007108F2070130F1007108A1070130F002A5
:10077C009C2BF4000230F10070088400710880009A
:10078C007408840083130008F100840A0008F20046
:10079C007208F300700A8400730880001F30840014
:1007AC000A128A110320F1007408840000087105F4
:1007BC00F2007008023E8400720880000800F70006
:1007CC007708840083130008F300840A0008F400FF
:1007DC00840A0008F5000430F100700884007108E8
:1007EC008000F80104307802031808007808733E82
:1007FC0084000008F1007808013E7007F2007208CE
:10080C008400710880000130F1007108F807F82BA2
:10081C0083160313C101C201F001F1017108803A82
:10082C00FF0080307F02031D1D2C1E307002031848
:10083C00352C7008C33E8400831380010130F0070F
:10084C000318F10A0030F1077108803AFF0080307C
:10085C007F02031D332C1E307002031C1F2C8316C9
:10086C000313E101080083160313A001A101F00199
:10087C00F1017108803AFF0080307F02031D482C83
:10088C001E3070020318602C7008A23E8400831383
:10089C0080010130F0070318F10A0030F1077108EC
:1008AC00803AFF0080307F02031D5E2C1E307002E8
:1008BC00031C4A2C83160313C0010800F500831691
:1008CC0003134108F4007508840074088313800036
:1008DC00F601420876020318852C7608C33E840084
:1008EC000008F40072088400740880000130F400E1
:1008FC007408F2070130F4007408F6076F2C4208F4
:10090C00F40073088400740880000A128A110E2403
:10091C0083120313D2010800FA00750803190800AA
:10092C007730F6007608F0007A080A128A11BF2395
:10093C000A128A110230F6007608FA07FB0103301E
:10094C007B020318C22C7B08773E84000008F6005B
:10095C00831603132108A23E8400760883138000BB
:10096C000130F6007608A1070130F6007608FB0787
:10097C0003307B02031CA92C0130F502932C83124B
:10098C000313A5007908031908002030FA007A082F
:10099C00F00025080A128A11E5230A128A11033085
:1009AC00FA007A0883120313A507A6010530260264
:1009BC000318FB2C2608203E840083130008FA0041
:1009CC00831603132108A23E84007A0880000130AC
:1009DC00FA007A08A1070130FA007A08831203138F
:1009EC00A60705302602031CE02C0130F902C82CA6
:1009FC00F300831203131308F1007108F2000C2D9D
:100A0C000711172D0710172D8710172D7308013A92
:100A1C000319062D033A0319082D013A03190A2D5F
:100A2C00172D70089300831603131418272D192DF6
:100A3C0083120715322D83120714322D831287145B
:100A4C00322D7308013A03191E2D033A0319212D77
:100A5C00013A0319242D322D83121308F100710869
:100A6C00F2000800F300831203131308F10071085D
:100A7C00F200462D0711512D0710512D8710512DC5
:100A8C007308013A0319402D033A0319422D013A18
:100A9C000319442D512DFF309300831603131418A2
:100AAC00612D532D831207156C2D831207146C2D99
:100ABC00831287146C2D7308013A0319582D033ACD
:100ACC0003195B2D013A03195E2D6C2D831213084B
:100ADC00F100700884007108831380000800F8008E
:100AEC00F7017708031D0800AA30F4007408F00021
:100AFC0078080A128A11FE240A128A114130F50074
:100B0C00EE30F400F40B882DF50B882D000003302B
:100B1C00F4007408F00078080A128A11FE240A12F4
:100B2C008A114130F500EE30F400F40B9B2DF50BDF
:100B3C009B2D00007730F4007408F00078080A123E
:100B4C008A1138250A128A110D30F600AF30F500E3
:100B5C00C130F400F40BB02DF50BB02DF60BB02D0D
:100B6C000000772D83120313AC007D08013EF000CA
:100B7C00003003180130F1007C08A700A8012708F9
:100B8C00F2002808F3000A128A117A230A128A1139
:100B9C00831603132108700783120313A90071082D
:100BAC000318710AAA00A909AA09A90A0319AA0A11
:100BBC001E3029072A0803182A0A003EAB00AB1B7B
:100BCC000800092E7C0883120313A7002708F000E5
:100BDC002C080A128A119B2308007C088312031329
:100BEC00A7002708F5002C080A128A119224080085
:100BFC007C0883120313A7002708F9002C080A129B
:100C0C008A11C52408007D08013A0319E82D033A1E
:100C1C000319F32D063A0319FE2D142E0800F700C4
:100C2C00AA30F4007408F00077080A128A11FE2426
:100C3C000A128A114130F500EE30F400F40B242E28
:100C4C00F50B242E00000230F4007408F000770835
:100C5C000A128A11FE240A128A114130F500EE3074
:100C6C00F400F40B372EF50B372E0000C130F400D6
:100C7C007408F00077080A128A1138250A128A11B2
:100C8C004130F500EE30F400F40B4A2EF50B4A2EF1
:100C9C000000C230F4007408F00077080A128A11C0
:100CAC0038250A128A114130F500EE30F400F40BAD
:100CBC005D2EF50B5D2E0000F60183160313420822
:100CCC0076020318822E7608C33EF4007408F000F6
:100CDC0077080A128A1138250A128A114130F50058
:100CEC00EE30F400F40B782EF50B782E000001306A
:100CFC00F4007408F607632EE130F4007408F00079
:100D0C0077080A128A1138250A128A114130F50027
:100D1C00EE30F400F40B902EF50B902E00008312A5
:100D2C000313D201D20A0800FA007408F600760800
:100D3C0083160313A0007508F6007608C000AA30CD
:100D4C00F6007608F0007A080A128A11FE240A12BC
:100D5C008A114130F700EE30F600F60BB32EF70B8C
:100D6C00B32E0000F001F00A7A080A128A11FE2450
:100D7C000A128A114130F700EE30F600F60BC42E41
:100D8C00F70BC42E0000831603132008F600760818
:100D9C00F0007A080A128A11FE240A128A114130D4
:100DAC00F700EE30F600F60BD92EF70BD92E00001B
:100DBC00831603132108F6007608F0007A080A124D
:100DCC008A11FE240A128A114130F700EE30F60027
:100DDC00F60BEE2EF70BEE2E0000F801F901790858
:100DEC00803AF60080307602031D002F8316031321
:100DFC00210878020318202F7808A23E8400831360
:100E0C000008F6007608F0007A080A128A11FE240F
:100E1C000A128A114130F700EE30F600F60B142F4F
:100E2C00F70B142F00000130F8070318F90A0030F3
:100E3C00F907F52E831603134008F6007608F00028
:100E4C007A080A128A11FE240A128A114130F7001C
:100E5C00EE30F600F60B302FF70B302F00000A1295
:100E6C008A11392408000A128A112B230A128A11BA
:100E7C008312031308170D30AF00AF30AE00C13032
:100E8C00AD00AD0B472FAE0B472FAF0B472F00001C
:100E9C008312031308130D30AF00AF30AE00C13016
:100EAC00AD00AD0B572FAE0B572FAF0B572F0000CC
:100EBC000A128A111E230A128A110A128A113A2363
:100ECC000A128A1121300A128A1159230A128A1124
:100EDC001A3083120313AF005E30AE008630AD00C3
:100EEC00AD0B762FAE0B762FAF0B762F00000230AA
:100EFC0083120313AD002D08CF00FC01FC0AFD0189
:100F0C00FD0A4F300A128A11B8250A128A110330D1
:100F1C0083120313AD002D08F4001030AE002E0820
:100F2C00F50003300A128A119A260A128A1103302C
:100F3C000A128A1175250A128A1103300A128A11B3
:100F4C0015260A128A118312031308170630AF00F4
:100F5C001330AE00B130AD00AD0BB22FAE0BB22FD3
:100F6C00AF0BB22FB92F8312031308130630AF0047
:100F7C001330AE00B130AD00AD0BC22FAE0BC22F93
:100F8C00AF0BC22FC92F831203135203031DA92FBA
:100F9C003030AD002D08F2005130AE002E08F300B9
:100FAC004E300A128A1164240A128A118312031316
:100FBC00D001510850020318A92F5008303E84006C
:100FCC00831300080A128A110E230A128A110130A7
:100FDC0083120313AD002D08D007DF2FD20183132A
:100FEC00A0308400E2300A128A11162383010A12FF
:040FFC008A11392FEE
:02400E0072FF3F
:00000001FF
